:020000040000FA
:10000000800400106D010000710100007301000008
:100010007501000077010000790100000000000078
:100020000000000000000000000000007B01000054
:100030007D010000000000007F0100008101000040
:1000400083010000830100008301000083010000A0
:1000500083010000C512000083010000830100003D
:100060008301000083010000830100008301000080
:100070008301000083010000830100008301000070
:100080008301000083010000830100008301000060
:100090008301000083010000830100008301000050
:1000A0008301000083010000830100008301000040
:1000B0008301000083010000830100008301000030
:1000C00083010000830100008301000000F002F8BA
:1000D00000F03AF80AA090E8000C82448344AAF1A8
:1000E0000107DA4501D100F02FF8AFF2090EBAE8A6
:1000F0000F0013F0010F18BFFB1A43F0010318475C
:100100004401000064010000103A24BF78C878C19F
:10011000FAD8520724BF30C830C144BF04680C600D
:10012000704700000023002400250026103A28BF55
:1001300078C1FBD8520728BF30C148BF0B60704759
:100140001FB51FBD10B510BD00F045F81146FFF7F3
:10015000F7FF00F025F800F063F803B4FFF7F2FFB3
:1001600003BC00F067F8000000BF70470848004774
:10017000FEE7FEE7FEE7FEE7FEE7FEE7FEE7FEE757
:10018000FEE7FEE703480449024A044B70470000BB
:10019000CD000000800200108004001080020010DA
:1001A00010B500F0ADF800F028FA00F0DFFF00BF56
:1001B00005480068B0F5007FFAD3044A6421084678
:1001C00000F045FF002010BD1000001014000010CA
:1001D000704770477047754600F028F8AE46050036
:1001E0006946534620F00700854618B020B5FFF752
:1001F000C9FFBDE820404FF000064FF000074FF068
:1002000000084FF0000B21F00701AC46ACE8C00934
:10021000ACE8C009ACE8C009ACE8C0098D4670473D
:100220000446AFF300802046FFF797FF0048704771
:100230001C02001001491820ABBEFEE72600020098
:10024000704700009432000000000010140000000D
:1002500008010000A8320000140000106C04000027
:100260002401000000000000000000000000000069
:10027000000000000000000000000000000000007E
:10028000000000000000000000000000000000006E
:10029000000000000000000000000000000000005E
:1002A000000000000000000000000000000000004E
:1002B000000000000000000000000000000000003E
:1002C000000000000000000000000000000000002E
:1002D000000000000000000000000000000000001E
:1002E000000000000000000000000000000000000E
:1002F000000000000000000000000000FFFFFFFF02
:1003000020207649086000BF7448006810F0400F54
:10031000FAD00320724908604FF000007149C1F81B
:10032000A801714908604FF00100704908607048E9
:10033000704908604FF00100A1F1040108604FF01E
:10034000AA006D4908604FF055006649C1F88C005D
:1003500000BF6A48006810F0806FFAD00320684937
:1003600008604FF0AA005F49C1F88C004FF05500BB
:10037000614908604FF000006249086062486349C3
:1003800008604FF000005749C1F8C8015B48006899
:10039000C0F30160032868D15448006810F00300DE
:1003A00006D0012823D002283FD003285CD100E0EA
:1003B00000BF52480068C0F30E0000F101004FEA90
:1003C0004000534900FB01F04649D1F88810C1F3C1
:1003D000074101F10101B0FBF1F141480068C0B2F1
:1003E00000F10100B1FBF0F04A4908603CE04348ED
:1003F0000068C0F30E0000F101004FEA40004649DA
:1004000000FB01F03749D1F88810C1F3074101F131
:100410000101B0FBF1F132480068C0B200F1010007
:10042000B1FBF0F03B4908601EE034480068C0F3BF
:100430000E0000F101004FEA40004FF4FA4100FBCA
:1004400001F02849D1F88810C1F3074101F10101F9
:10045000B0FBF1F122480068C0B200F10100B1FB2D
:10046000F0F02C49086000BF2FE02048006810F031
:10047000030006D0012810D0022819D0032823D168
:1004800000E000BF16480068C0B200F1010020493A
:10049000B1FBF0F01F49086016E011480068C0B2D7
:1004A00000F101001C49B1FBF0F01A4908600BE0B3
:1004B0000B480068C0B200F101004FF4FA41B1FBF3
:1004C000F0F01449086000BF00BF0648006820F43F
:1004D000704040F48040034908607047A0C10F405D
:1004E00004C10F4000C00F40ACC10F400CC10F4011
:1004F0006300050084C00F408CC00F4088C00F40CF
:1005000080C00F4008C10F40DE872804C4C00F40E0
:1005100000093D0000000010001BB700800400BF70
:100520000100A0F10100FBD1704700BF0100A0F164
:100530000100FBD1704710B50446F748006C40F04D
:10054000FF00F54908644FF400108861FFF70CFEC6
:100550004FF40020F049C861084644654FF480100C
:100560008861FFF701FEFFF7FFFD4FF48010EA49B5
:10057000C86120124865FFF7F7FD012010BD10B5D6
:1005800004464FF40000E449C861800088612046B9
:10059000FFF7D1FF4FF08070DF49C861FFF7E4FD3E
:1005A0004FF08070DC49886110BD10B504464FF4EF
:1005B0000000D9498861800088612046FFF7BBFFB1
:1005C0004FF08070D449C861FFF7CEFD4FF08070C6
:1005D000D149886110BD70B505460C464FF48000C6
:1005E000CD49C8612846FFF7CAFF2046FFF7DDFF67
:1005F0004FF48000C849886170BD10B5C648006CD2
:1006000040F0FF00C44908640846006840F07E706E
:1006100008604FF07E7088610520FFF77FFF0121A1
:100620000020FFF7D8FF43F63F310120FFF7D3FF4B
:100630004FF4C0610220FFF7CEFF07210C20FFF727
:10064000CAFF06210D20FFF7C6FF4FF448510E20C8
:10065000FFF7C1FFBB211E20FFF7BDFF46F6642157
:100660000320FFF7B8FF00210F20FFF7B4FF4FF47E
:100670006F414420FFF7AFFF00214520FFF7ABFF9C
:1006800040F23F114620FFF7A6FF00213020FFF780
:10069000A2FF40F206713120FFF79DFF40F20621D4
:1006A0003220FFF798FF4FF440713320FFF793FF9C
:1006B00002213420FFF78FFF00213520FFF78BFF49
:1006C00040F207713620FFF786FF4FF400713720A4
:1006D000FFF781FF40F608113A20FFF77CFF40F654
:1006E0000D713B20FFF777FF06212820FFF773FFEE
:1006F00041F2EB212F20FFF76EFF4FF4E04126205F
:10070000FFF769FF4BF2E3012020FFF764FF44216C
:100710002720FFF760FF47F645612E20FFF75BFFBC
:1007200000211020FFF757FF0820FFF7F7FE46F6DD
:1007300078011120FFF74FFF33210720FFF74BFF10
:1007400010BD10B500215020FFF745FFEF215120CB
:10075000FFF741FF00215220FFF73DFF40F23F111C
:100760005320FFF738FF10BD70B504460D466B48A7
:100770000088A0F50941993905D068480088A0F59E
:100780001941193908D121464E20FFF724FF294687
:100790004F20FFF720FF07E021462020FFF71BFF37
:1007A00029462120FFF717FF70BD70B50546FFF7FA
:1007B000C8FF00210846FFF7D7FF4FF480005649D5
:1007C000C8612220FFF7DBFE00F0ACFC002403E050
:1007D000284600F0B1FC641CB4F5963FF8D300F055
:1007E000A6FC70BD70B504460D46A9B2C4F13F0227
:1007F000D0B2FFF7B9FF4FF480004749C86122200B
:10080000FFF7BDFE46480088FFF7CFFE4FF480009B
:100810004149886170BD424908807047414908805C
:1008200070472DE9F04704460D4616464FF0000983
:10083000C4F59874A9B25020FFF7CDFE05F117005A
:1008400081B25120FFF7C7FEA1B25220FFF7C3FECD
:1008500004F10F0081B25320FFF7BDFE00210846CE
:10086000FFF782FF4FF480002B49C8612220FFF779
:1008700086FE00F057FCC84616E00F270FE036F85A
:1008800019100120B840014204D12648008800F028
:1008900053FC03E02248008800F04EFC7F1E002F2E
:1008A000EDDAB61C08F10108B8F1180FE5DB00F02D
:1008B0003EFCBDE8F0872DE9F04105460E461446A2
:1008C000A4F12000C4B204EB4403174F07EB03125A
:1008D00005EB4503D9003001FFF7A3FFBDE8F08128
:1008E00070B506460D461446FFF72BFF06E014F8D8
:1008F000012B29466D1C3046FFF7DDFF20780028CC
:10090000F5D170BD10B50446FFF71BFF07A200210B
:100910002046FFF7E5FF10BD00C009200C000010C5
:10092000080000100A0000103013000020202020D2
:1009300020202020202020202020202020202020B7
:10094000000000002DE9F04705460E461446984683
:10095000DDF82090C5F5A070051BB1B25020FFF75F
:100960003AFE06F1170081B25120FFF734FEA9B21A
:100970005220FFF730FE2819401E81B25320FFF7A6
:100980002AFE09FB04F04FEA902900210846FFF7F0
:10099000EBFE4FF48000F749C8612220FFF7EFFD1E
:1009A00000F0C0FB4FF0000A11E0671E0BE04F455E
:1009B00004D3F148008800F0BFFB03E0EF48008853
:1009C00000F0BAFB7F1E002FF1DA0AF1010AC245DE
:1009D000EBD300F0ACFBBDE8F0872DE9F05F0546F6
:1009E0000E4614469846DDF828B05F46C5F5A0705F
:1009F000051BB1B25020FFF7EEFD06EB0800401ECC
:100A000081B25120FFF7E7FDA9B25220FFF7E3FDC5
:100A10002819401E81B25320FFF7DDFDB1B220201E
:100A2000FFF7D9FDA9B22120FFF7D5FD4FF48000D3
:100A3000D049C8612220FFF7A2FD00F073FB4FF000
:100A4000000A12E0601E07EB40074FF0000905E0C6
:100A500037F8020900F070FB09F10109A145F7D34D
:100A6000601C07EB40070AF1010AC245EAD300F017
:100A70005EFBBDE8F09F2DE9F05F04460E4615468B
:100A80001F46DDF82890C846C4F5A070441BF01935
:100A9000401E46EA002081B24420FFF79CFDA1B22F
:100AA0004520FFF798FD6019401E81B24620FFF7F0
:100AB00092FDB1B24E20FFF78EFDA1B24F20FFF79D
:100AC0008AFD4FF48000AB49C8612220FFF757FD33
:100AD00000F028FB07FB05F0401E08EB40084FF034
:100AE000000B0CE04FF0000A05E038F8020900F0B6
:100AF00023FB0AF1010AAA45F7D30BF1010BBB4511
:100B0000F0D300F014FBBDE8F09F10B52220FFF7F2
:100B100036FD10BD2DE9F04704460F4615461E462A
:100B2000DDF8208021465020FFF755FD2946512051
:100B3000FFF751FD39465220FFF74DFD3146532056
:100B4000FFF749FD39462046FFF70EFE4FF48000BF
:100B50008849C861FFF7D9FF00F0E4FAF01B401C98
:100B6000291B491C00FB01F902E0404600F0E4FAB1
:100B70005FEA0900A9F10109F7D100215020FFF730
:100B80002AFDEF215120FFF726FD00215220FFF71B
:100B900022FD40F23F115320FFF71DFDBDE8F08715
:100BA00070B504460D46FFF7CCFDE0B22946FFF7CD
:100BB000DBFD4FF480006F49C8612220FFF7DFFCA6
:100BC00000F0B0FA6E48008800F0B6FA00F0AFFA14
:100BD00070BD2DE9FF4F85B081468A460020049004
:100BE00003900798A0EB09050898A0EB0A06CDF83A
:100BF0000890CDF804A0002D01DD012705E00DB916
:100C0000002702E04FF0FF376D42002E02DD4FF06B
:100C1000010806E016B94FF0000802E04FF0FF3877
:100C20007642B54201DD2C4600E034464FF0000B21
:100C300021E0019A91B2029A90B2FFF7B1FF0498B5
:100C4000284404900398304403900498A04205DDA2
:100C50000498001B04900298384402900398A04224
:100C600005DD0398001B03900198404401900BF1AF
:100C700001001FFA80FB601C8345DADD09B0BDE886
:100C8000F08F2DE9F04104460D4616461F462B46CF
:100C9000324629462046FFF79CFF3B46224629461E
:100CA0002046FFF796FF3B46324639462046FFF77F
:100CB00090FF3B46324629463046FFF78AFFBDE8A3
:100CC000F0812DE9F04706460F4690460024454640
:100CD0000320A0EB480948E03A1B91B2721B90B286
:100CE000FFF75EFF3A1B91B2721990B2FFF758FFFF
:100CF0007A1991B2321B90B2FFF752FF3A1B91B2B0
:100D0000721B90B2FFF74CFF7A1B91B2321B90B26C
:100D1000FFF746FF3A1991B2721990B2FFF740FF00
:100D20007A1B91B2321990B2FFF73AFF7A1991B259
:100D3000321990B2FFF734FF3A1991B2721B90B298
:100D4000FFF72EFF641CB9F1000F03DAA000801D2D
:100D5000814404E0601B80000A3081446D1E7A19D2
:100D600091B2321990B2FFF71BFFAC42B4DDBDE87F
:100D7000F087000000C009200A00001008000010E1
:100D80000400001070B504460E461546FFF7D9FC66
:100D9000E0B23146FFF7E8FC4FF48000EE49C8614D
:100DA0002220FFF7ECFB00F0BDF9284600F0C4F963
:100DB00000F0BDF970BD2DE9F05F0646884691460A
:100DC0001D46E82E02DCB8F5987F01DDBDE8F09FF6
:100DD00031465020FFF7FFFBAB4605EBDB704010C0
:100DE000401E304481B25120FFF7F5FB41465220AE
:100DF000FFF7F1FB08EB0500401E81B25320FFF71F
:100E0000EAFB41463046FFF7AFFCFFF77EFEA9F153
:100E1000200000F0FF090A98002834D100242FE0B8
:100E20000C2D07D109EB4900CC4901EB800010F8EB
:100E300004A004E0CA4800EB091010F804A0002741
:100E400017E01AF0010F08D008EB040291B2F01974
:100E5000C44A1288FFF796FF07E008EB040291B23C
:100E6000F019C14A1288FFF78DFF4FEA6A0A781C11
:100E7000C7B205EBD571B7EB610FE2DB601CC4B202
:100E8000AC42CDDB28E0002424E00C2D07D109EB97
:100E90004900B24901EB800010F804A004E0B0481A
:100EA00000EB091010F804A000270CE01AF0010F65
:100EB00005D008EB040291B2F019FFF771FE4FEA7A
:100EC0006A0A781CC7B205EBD571B7EB610FEDDB91
:100ED000601CC4B2AC42D8DB00215020FFF77BFB82
:100EE000EF215120FFF777FB00215220FFF773FB22
:100EF00040F23F115320FFF76EFB00BF66E710B5CD
:100F00000246012000E050430B00A1F10104E1B2D0
:100F1000F9D110BD2DE9FF4F81B0074691461E461D
:100F20000E9D4FF0000A002439E0301B401EC1B274
:100F30000A20FFF7E4FFB9FBF0F00A21B0FBF1F261
:100F400001FB1208BAF1000F16D1701EA04213DD8A
:100F5000B8F1000F0ED10120AB4605EBDB71491053
:100F600001FB04710090C8B22B4620220299FFF7C2
:100F700022FF12E04FF0010A0020AB4605EBDB71C7
:100F8000491001FB04710090C8B208F13001CAB2E7
:100F90002B460299FFF70FFF00BF601CC4B2B4429A
:100FA000C3DB05B0BDE8F08FF8B505460E46144624
:100FB0001BE0E82D03DD002506F1100086B2B6F532
:100FC000987F06DD0020054606464FF6FF70FFF7C6
:100FD000ECFB002000902278102331462846FFF7D2
:100FE000EAFE05F10800C5B2641C20780028E0D1B3
:100FF000F8BD2DE9FF4F81B0074690461D46DDE95B
:101000000E6A00241EE0281B401EC1B20A20FFF712
:1010100076FFB8FBF0F00A21B0FBF1F201FB1209F8
:10102000B34606EBDB71491001FB0471C8B209F14C
:101030003001CAB23346CDF800A00299FFF7BBFEDB
:10104000601CC4B2AC42DEDB05B0BDE8F08F2DE918
:10105000F05F05460E4691464F46C5F5807506F190
:101060003F0046EA002081B24420FFF7B4FAA9B25B
:101070004520FFF7B0FA05F13F0081B24620FFF7A7
:10108000AAFAB1B24E20FFF7A6FAA9B24F20FFF795
:10109000A2FA4FF480003049C8612220FFF76FFAAE
:1010A00000F040F84FF0000A35E008374FF0000B31
:1010B0002BE0BF1EB7F80080002410E004F1080008
:1010C000012101FA00F010EA080F04D14FF6FF7079
:1010D00000F032F802E0002000F02EF8641C082C2A
:1010E000ECDB00240DE00120A04010EA080F04D141
:1010F0004FF6FF7000F020F802E0002000F01CF82E
:10110000641C082CEFDB0BF1010BBBF1040FD0DBEF
:1011100008370AF1010ABAF1400FC6DB00F007F800
:10112000BDE8F09F4FF400000B49886170474FF411
:10113000800009498861704710B504462046FFF7D2
:10114000FAF94FF080700449C861FFF70DF84FF0CD
:1011500080700149886110BD00C00920302800005E
:10116000A42C0000040000100600001030B56849EF
:10117000096841F01001664A11601146096841F0A2
:10118000400111606349096841F00801624AC2F8F0
:10119000C4104FF08301614A11734FF00D000146F6
:1011A0004FEAE07200EB12624FEA22225B4B1A71A7
:1011B0004FEAE07200EB12624FEA2222A0EB022219
:1011C0001A704FF003011A4611734FF08701117224
:1011D0004FF0010151604FF005014FF0010202FA9A
:1011E00001F24FEA51134FF0E02404EB8303C3F8FC
:1011F000002100BF4FF00402002907DAD3061D0EBC
:10120000474B01F00F04241F1D5503E0D3061C0EAD
:10121000444B5C5400BF30BD00BF4049097D11F014
:10122000200FFAD03D490870704700BF3B48007D51
:1012300010F0010FFAD039480078704700B5024627
:1012400003E012F8010BFFF7E7FF10780028F8D150
:1012500000BD1CB502460A2092FBF0F100FB1120F4
:10126000303080B2ADF806000A2092FBF0F00A217F
:1012700090FBF1F401FB1400303080B2ADF80400B3
:10128000642092FBF0F090FBF1F401FB140030308D
:1012900080B2ADF802004FF47A7092FBF0F090FB50
:1012A000F1F401FB1400303080B2ADF800000023EF
:1012B00005E01DF81300FFF7AFFF581CC3B2042B65
:1012C000F7DB1CBD0CB5102000901448806801901D
:1012D000019800F00F00022804D0042803D00C2845
:1012E00012D101E011E000BF0C48007D10F0010FA9
:1012F00009D00A4801780C4802680068401C0A4B73
:1013000018600A48815400E000BF00BF0CBD000017
:1013100000C00240C4C00F4000C00F4000C00040E9
:1013200018ED00E000E400E01000001014000010D0
:1013300000000000000000000000000000000000AD
:10134000000000000000000000000000000000009D
:10135000000000000000000000000000000000008D
:1013600000008001800180018001800180018001F6
:101370008001800180018001800180010000000067
:10138000800180010000000000000000000000005B
:1013900000000000CC00CC00CC00CC00CC00CC0085
:1013A000000000000000000000000000000000003D
:1013B000000000000000000000000000000000002D
:1013C000000000000000000000000000600C600C45
:1013D000600C30063006FE1FFE1F3006380718036B
:1013E000FE1FFE1F180318038C018C018C010000E6
:1013F00000008000E003F80F9C0E8C1C8C188C0001
:101400009800F801E007800E801C8C188C189C183E
:10141000B80CF00FE0038000800000000000000026
:101420000000000000000E181B0C110C1106110624
:10143000110311039B018E01C038C06C60446044ED
:10144000304430441844186C0C3800000000000090
:101450000000E001F0033807180618063003F00119
:10146000F000F8009C310E33061E061C061C063FD9
:10147000FC73F021000000000000000000000000EC
:10148000000000000C000C000C000C000C000C0014
:10149000000000000000000000000000000000004C
:1014A000000000000000000000000000000000003C
:1014B0000000000200038001C000C0006000600066
:1014C000300030003000300030003000300030009C
:1014D00060006000C000C000800100030002000046
:1014E000000020006000C0008001800100030003B4
:1014F00000060006000600060006000600060006BC
:101500000003000380018001C00060002000000093
:10151000000000000000000000000000C000C0004B
:10152000D806F807E001300338070000000000008B
:1015300000000000000000000000000000000000AB
:101540000000000000000000000000008001800199
:10155000800180018001FC3FFC3F8001800180010F
:101560008001800100000000000000000000000079
:10157000000000000000000000000000000000006B
:10158000000000000000000000000000000000005B
:1015900000008001800100010001800000000000C7
:1015A000000000000000000000000000000000003B
:1015B0000000000000000000E007E007000000005D
:1015C000000000000000000000000000000000001B
:1015D000000000000000000000000000000000000B
:1015E00000000000000000000000000000000000FB
:1015F0000000C000C000000000000000000000006B
:101600000000000C000C00060006000600030003AA
:1016100000038003800180018001C000C000C00081
:1016200060006000000000000000000000000000FA
:101630000000E003F007380E180C0C180C180C18FA
:101640000C180C180C180C180C180C18180C380E58
:10165000F007E003000000000000000000000000B0
:10166000000000018001C001F001980188018001A3
:101670008001800180018001800180018001800162
:101680008001800100000000000000000000000058
:101690000000E003F80F180C0C180C1800180018C4
:1016A000000C000600038001C0006000300018003C
:1016B000FC1FFC1F000000000000000000000000F4
:1016C0000000E001F807180E0C0C0C0C000C0006D2
:1016D000C003C007000C001800180C180C18180CD8
:1016E000F807E00300000000000000000000000018
:1016F0000000000C000E000F000F800DC00C600CED
:10170000600C300C180C0C0CFC3FFC3F000C000C67
:10171000000C000C000000000000000000000000B1
:101720000000F80FF80F180018000C00EC03FC077D
:101730001C0E001C0018001800180C181C0C180EA9
:10174000F807E003000000000000000000000000B7
:101750000000C007F00F381C181818000C00CC034C
:10176000EC0F3C0E1C1C0C180C180C18181C380E16
:10177000F007E0030000000000000000000000008F
:101780000000FC1FFC1F000C000600060003800385
:101790008001C001C000E000600060007000300007
:1017A00030003000000000000000000000000000D9
:1017B0000000E003F007380E180C180C180C38065F
:1017C000F007F007180C0C180C180C180C18380C33
:1017D000F80FE0030000000000000000000000001F
:1017E0000000E003F007380E1C0C0C180C180C1845
:1017F0001C1C381EF81BE0190018000C000C1C0EF5
:10180000F807F001000000000000000000000000E8
:1018100000000000000000000000000080018001C6
:1018200000000000000000000000000000000000B8
:1018300080018001000000000000000000000000A6
:101840000000000000000000000000008001800196
:101850000000000000000000000000000000000088
:1018600080018001000100018000000000000000F4
:101870000000000000000000000000000000000068
:101880000010001C800FE003F8001800F800E003CF
:10189000800F001C0010000000000000000000008D
:1018A0000000000000000000000000000000000038
:1018B000F81F000000000000F81F000000000000FA
:1018C0000000000000000000000000000000000018
:1018D0000000000000000000000000000000000008
:1018E00008003800F001C007001F0018001FC007E3
:1018F000F0013800080000000000000000000000B7
:101900000000E003F80F180C0C180C180018000C5D
:10191000000600038001C000C000C00000000000FD
:10192000C000C00000000000000000000000000037
:1019300000000000E00718180420C229224A1144C0
:1019400009440944094409221113E20C024004200D
:101950001818E00700000000000000000000000070
:10196000000080038003C006C006C006600C600C47
:10197000301830183018F83FF83F1C700C600C60BD
:1019800006C006C0000000000000000000000000CB
:101990000000FC03FC0F0C0C0C180C180C180C0CA1
:1019A000FC07FC0F0C180C300C300C300C300C18F1
:1019B000FC1FFC0700000000000000000000000009
:1019C0000000C007F01F38381C300C70066006009D
:1019D0000600060006000600060006600C701C30BB
:1019E000F01FE00700000000000000000000000001
:1019F0000000FE03FE0F060E06180618063006301D
:101A00000630063006300630063006180618060E78
:101A1000FE0FFE03000000000000000000000000B8
:101A20000000FC3FFC3F0C000C000C000C000C0004
:101A3000FC1FFC1F0C000C000C000C000C000C0028
:101A4000FC3FFC3F00000000000000000000000020
:101A50000000F83FF83F18001800180018001800A0
:101A6000F81FF81F180018001800180018001800B8
:101A70001800180000000000000000000000000036
:101A80000000E00FF83F3C780E6006E007C003005E
:101A9000030003FE03FE03C007C006C00EC03CF0F7
:101AA000F83FE00F00000000000000000000000010
:101AB00000000C300C300C300C300C300C300C3082
:101AC000FC3FFC3F0C300C300C300C300C300C3038
:101AD0000C300C300000000000000000000000008E
:101AE000000080018001800180018001800180016F
:101AF00080018001800180018001800180018001DE
:101B000080018001000000000000000000000000D3
:101B1000000000060006000600060006000600069B
:101B2000000600060006000600061806180638071C
:101B3000F003E001000000000000000000000000D1
:101B4000000006300618060C060606038601C600CD
:101B500066007600DE008E0106030606060C0618F7
:101B600006300660000000000000000000000000D9
:101B700000001800180018001800180018001800BD
:101B80001800180018001800180018001800180095
:101B9000F81FF81F00000000000000000000000017
:101BA00000000EE01EF01EF01EF036D836D836D8F3
:101BB00036D866CC66CC66CCC6C6C6C6C6C6C6C651
:101BC00086C386C300000000000000000000000083
:101BD00000000C301C303C303C306C306C30CC3071
:101BE000CC308C310C330C330C360C360C3C0C3CAA
:101BF0000C380C3000000000000000000000000065
:101C00000000E007F81F1C380E70066003C003C018
:101C100003C003C003C003C003C006600E701C38BD
:101C2000F81FE007000000000000000000000000B6
:101C30000000FC0FFC1F0C380C300C300C300C304A
:101C40000C18FC1FFC070C000C000C000C000C0016
:101C50000C000C000000000000000000000000006C
:101C60000000E007F81F1C380E70066003E003C098
:101C700003C003C003C003C007E006630E3F1C3C63
:101C8000F83FE0F700C00000000000000000000086
:101C90000000FE0FFE1F06380630063006300638FC
:101CA000FE1FFE0706030606060C06180618063079
:101CB0000630066000000000000000000000000088
:101CC0000000E003F80F1C0C0C180C180C001C0092
:101CD000F803E00F001E0038063006300E301C1CE2
:101CE000F80FE00700000000000000000000000006
:101CF0000000FE7FFE7F8001800180018001800165
:101D000080018001800180018001800180018001CB
:101D100080018001000000000000000000000000C1
:101D200000000C300C300C300C300C300C300C300F
:101D30000C300C300C300C300C300C300C301818CF
:101D4000F81FE00700000000000000000000000095
:101D5000000003600630063006300C180C180C1812
:101D6000180C180C380E300630067007600360033C
:101D7000C001C001000000000000000000000000E1
:101D800000000360C361C361C361663366336633B9
:101D90006633663366336C1B6C1B6C1B2C1A3C1E43
:101DA000380E380E000000000000000000000000A7
:101DB00000000FE00C7018303018700C600EC00777
:101DC00080038003C003E006700C301C18180C3030
:101DD0000E6007E0000000000000000000000000AE
:101DE000000003C006600C301C383818300C600648
:101DF000E007C00380018001800180018001800133
:101E000080018001000000000000000000000000D0
:101E10000000FC7FFC7F006000300018000C000612
:101E200000038001C0006000300018000C000600B4
:101E3000FE7FFE7F000000000000000000000000A8
:101E40000000E003E00360006000600060006000EC
:101E50006000600060006000600060006000600082
:101E600060006000600060006000E003E0030000CC
:101E7000000030003000600060006000C000C00062
:101E8000C000C00180018001800100030003000345
:101E90000006000600000000000000000000000036
:101EA0000000E003E003000300030003000300035D
:101EB000000300030003000300030003000300030A
:101EC00000030003000300030003E003E00300003D
:101ED00000000000C001C001600360036003300621
:101EE0003006180C180C0000000000000000000074
:101EF00000000000000000000000000000000000E2
:101F000000000000000000000000000000000000D1
:101F100000000000000000000000000000000000C1
:101F20000000FFFFFFFF00000000000000000000B5
:101F300000000C000C000C000C000C000C00000059
:101F40000000000000000000000000000000000091
:101F50000000000000000000000000000000000081
:101F6000000000000000000000000000F003F8077F
:101F70001C0C0C0C000FF00FF80C0C0C0C0C1C0FB4
:101F8000F80FF01800000000000000000000000042
:101F9000000018001800180018001800D803F80FE7
:101FA000380C181818181818181818181818380C89
:101FB000F80FD8030000000000000000000000003F
:101FC000000000000000000000000000C003F00757
:101FD000300E180C1800180018001800180C300EDD
:101FE000F007C00300000000000000000000000037
:101FF000000000180018001800180018C01BF01F7F
:10200000301C181818181818181818181818301C18
:10201000F01FC01B000000000000000000000000D6
:10202000000000000000000000000000C003F00FEE
:10203000300C1818F81FF81F180018003818301C3A
:10204000F00FC007000000000000000000000000CA
:102050000000800FC00FC000C000C000F007F007F4
:10206000C000C000C000C000C000C000C000C00070
:10207000C000C000000000000000000000000000E0
:10208000000000000000000000000000E00DF80F5C
:10209000180E0C0C0C0C0C0C0C0C0C0C0C0C180E64
:1020A000F80FE00D000C0C0C1C06F807F001000006
:1020B000000018001800180018001800D807F80FC2
:1020C000381C18181818181818181818181818186C
:1020D00018181818000000000000000000000000A0
:1020E0000000C000C000000000000000C000C000F0
:1020F000C000C000C000C000C000C000C000C000E0
:10210000C000C0000000000000000000000000004F
:102110000000C000C000000000000000C000C000BF
:10212000C000C000C000C000C000C000C000C000AF
:10213000C000C000C000C000C000F800780000006F
:1021400000000C000C000C000C000C000C0C0C0629
:102150000C038C01CC006C00FC009C018C030C0374
:102160000C060C0C00000000000000000000000045
:102170000000C000C000C000C000C000C000C0001F
:10218000C000C000C000C000C000C000C000C0004F
:10219000C000C000000000000000000000000000BF
:1021A0000000000000000000000000007C3CFF7EFA
:1021B000C7E383C183C183C183C183C183C183C199
:1021C00083C183C100000000000000000000000087
:1021D0000000000000000000000000009807F80F59
:1021E000381C18181818181818181818181818184B
:1021F000181818180000000000000000000000007F
:10220000000000000000000000000000C003F00F0C
:10221000300C181818181818181818181818300C26
:10222000F00FC003000000000000000000000000EC
:10223000000000000000000000000000D803F80FBC
:10224000380C181818181818181818181818380CE6
:10225000F80FD80318001800180018001800000024
:10226000000000000000000000000000C01BF01F84
:10227000301C181818181818181818181818301CA6
:10228000F01FC01B001800180018001800180000EC
:10229000000000000000000000000000B007F00394
:1022A000700030003000300030003000300030006E
:1022B00030003000000000000000000000000000BE
:1022C000000000000000000000000000E003F00338
:1022D000380E180C3800F003C007000C180C380E2C
:1022E000F007E00300000000000000000000000014
:1022F000000000008000C000C000C000F007F00730
:10230000C000C000C000C000C000C000C000C000CD
:10231000C00780070000000000000000000000006F
:10232000000000000000000000000000181818184D
:102330001818181818181818181818181818381CF9
:10234000F01FE01900000000000000000000000085
:102350000000000000000000000000000C18180C35
:10236000180C180C3006300630066003600360035A
:10237000C001C001000000000000000000000000DB
:10238000000000000000000000000000C141C14149
:10239000C3616363636363633636363636361C1C4B
:1023A0001C1C1C1C000000000000000000000000BD
:1023B0000000000000000000000000001C38381C75
:1023C000300C6006C003C003C003C0036006300CBD
:1023D000381C1C3800000000000000000000000055
:1023E000000000000000000000000000183030185D
:1023F00030187018600C600CE00CC006C00680033A
:102400008003800380018001C001F00070000000A3
:10241000000000000000000000000000FC1FFC1F86
:10242000000C000600038001C000600030001800AE
:10243000FC1FFC1F00000000000000000000000066
:10244000000000038001C000C000C000C000C00048
:10245000C00060006000300060004000C000C000AC
:10246000C000C000C000C0008001000300000000E8
:1024700000008001800180018001800180018001D5
:102480008001800180018001800180018001800144
:1024900080018001800180018001800180010000B5
:1024A00000006000C000C001800180018001800147
:1024B0008001000300030006000300018001800189
:1024C0008001800180018001C000600000000000E8
:1024D00000000000000000000000000000000000FC
:1024E000F010F81F080F00000000000000000000BE
:1024F00000000000000000000000000000000000DC
:1025000000000000000000000000000000000000CB
:1025100000000000000000000000000000000000BB
:1025200000000000000000000000000000000000AB
:1025300000000000000000000000C003300C081084
:1025400004200420024002400240024002400420D5
:1025500004200810300CC003000000000000000040
:1025600000000000000000000000C003F00FF81F92
:10257000FC3FFC3FFE7FFE7FFE7FFE7FFE7FFC3F39
:10258000FC3FF81FF00FC003000000000000000037
:102590000000000000000000000000000000E00754
:1025A000F00F181818181818181818181818F00F0D
:1025B000E007000000000000000000000000000034
:1025C0000000000000000000000000000000E00724
:1025D000F00FF81FF81FF81FF81FF81FF81FF00F73
:1025E000E007000000000000000000000000000004
:1025F00000000000000000000000000000000000DB
:1026000000000000000000008001C0036006300CE4
:1026100018181818F81FF81F00000000000000002C
:1026200000000000000000000000000000000000AA
:1026300000000000000000008001C003E007F00F70
:10264000F81FF81FF81FF81F00000000000000002E
:102650000000000000000000F81FF81F18181818EC
:10266000300C6006C0038001000000000000000084
:10267000000000000000000000000000000000005A
:102680000000000000000000F81FF81FF81FF81FEE
:10269000F00FE007C0038001000000000000000010
:1026A000000000000000000000000000000000002A
:1026B0000000000000000000000000000000E00139
:1026C000F00198018C01860186018C019801F001CE
:1026D000E001000000000000000000000000000019
:1026E0000000000000000000000000000000E00109
:1026F000F001F801FC01FE01FE01FC01F801F0010E
:10270000E0010000000000000000000000000000E8
:102710000000000000000000000000000000800732
:10272000800F801980318061806180318019800F35
:102730008007000000000000000000000000000012
:102740000000000000000000000000000000800702
:10275000800F801F803F807F807F803F801F800FA1
:1027600080070000000000000000000000000000E2
:102770000000C001200220024001300608080808BD
:102780000808080808080808080820022002200293
:10279000200220022002200220022002200200004B
:1027A0000000C001E003E003C001F007D80DD80D20
:1027B000D80DD80DD80DD80DD80D60036003600377
:1027C0006003600360036003600360036003000054
:1027D0000000C0012002200240013006080808085D
:1027E00008080410022002204001200220021004E8
:1027F0000808080804100410042004400000000029
:102800000000C001E003E003C001F007D80DD80DBF
:10281000D80DCC19C631C261C001600360037006D7
:10282000380C180C0C180C180C300C600000000050
:102830000000000000000000000000000000040490
:10284000040404040004000000140A0A000000004C
:1028500000000000000014143F140A3F0A0A0000A0
:1028600000041E1505060C14150F040000001215B7
:102870000D0A142C2A1200000000040A0A1E151565
:102880000936000000020201000000000000000004
:10289000002010080808080808102000000204089A
:1028A000080808080804020000000004150E0E15B0
:1028B0000400000000000404041F040404000000DD
:1028C0000000000000000000000202010000000003
:1028D000001F0000000000000000000000000000D9
:1028E00000020000001008080804040202020100AF
:1028F00000000E1111111111110E0000000004064C
:1029000004040404040E000000000E111108040267
:10291000011F000000000E11100C1010110E00001D
:102920000000080C0A0A091E0818000000001F0118
:10293000010F1010110E000000000E09010F1111FF
:10294000110E000000001F09080404040404000024
:1029500000000E11110E1111110E000000000E11D9
:1029600011111E10120E00000000000004000000F3
:102970000004000000000000000400000004040047
:1029800000201008040204081020000000000000CD
:102990001F00001F000000000002040810201008A3
:1029A0000402000000000E111108040400040000DD
:1029B00000000E111915151D011E00000000040471
:1029C0000C0A0A1E1233000000000F12120E12121F
:1029D000120F000000001E1101010101110E000084
:1029E00000000F1212121212120F000000001F122C
:1029F0000A0E0A02121F000000001F120A0E0A022D
:102A00000207000000001C1201013911120C000025
:102A100000003312121E12121233000000001F04B5
:102A200004040404041F000000003E08080808080D
:102A300008090700000037120A060A0A12370000C8
:102A40000000070202020202223F000000001B1BDE
:102A50001B1B15151515000000003B1216161A1A3F
:102A60001217000000000E1111111111110E0000BB
:102A700000000F12120E02020207000000000E11E9
:102A800011111117190E180000000F12120E0A1260
:102A90001237000000001E1101060810110F00007F
:102AA00000001F1504040404040E0000000033128B
:102AB00012121212120C000000003312120A0A0C39
:102AC0000404000000001515150E0A0A0A0A000089
:102AD00000001B0A0A04040A0A1B000000001B0A6B
:102AE0000A040404040E000000001F090804040284
:102AF000121F0000001C04040404040404041C004D
:102B0000000202020404080808100000000E080871
:102B10000808080808080E0000040A000000000069
:102B20000000000000000000000000000000003F66
:102B30000004000000000000000000000000000091
:102B4000000C121C123C000000000302020E1212C4
:102B5000120E000000000000001C1202021C000007
:102B600000001810101C1212123C0000000000009F
:102B7000000C121E021C000000003804041E040495
:102B8000041E000000000000003C120C021E221C6B
:102B900000000302020E12121237000000000400AF
:102BA00000060404040E000000000800000C0808E1
:102BB0000808080700000302023A0A0E1237000054
:102BC0000000070404040404041F000000000000C7
:102BD000000F15151515000000000000000F12125F
:102BE0001237000000000000000C1212120C00004E
:102BF00000000000000F1212120E02070000000079
:102C0000001C1212121C103800000000001B0602EB
:102C10000207000000000000001E020C101E000051
:102C200000000004040E040404180000000000006A
:102C3000001B1212123C0000000000000037120AB4
:102C40000C040000000000000015150E0A0A000028
:102C500000000000001B0A040A1B00000000000026
:102C60000037120A0C04040300000000001E0804D0
:102C7000041E0000001808080804080808081800C6
:102C800008080808080808080808080800060404D6
:102C900004080404040406000225180000000000D3
:102CA0000000000000000000000000000000000024
:102CB00000000000000000080808080808080000DC
:102CC0001818000000486C241200000000000000EA
:102CD000000000000000002424247F1212127F1242
:102CE000121200000000081C2A2A0A0C1828282AA0
:102CF0002A1C080800000022251515152A585454CE
:102D0000542200000000000C1212120A762529112C
:102D1000916E0000000606040300000000000000A1
:102D200000000000004020101008080808080810E3
:102D300010204000000204080810101010101008A5
:102D4000080402000000000008086B1C1C6B080847
:102D50000000000000000000080808087F080808BC
:102D6000080000000000000000000000000000005B
:102D7000060604030000000000000000FE00000042
:102D80000000000000000000000000000000000043
:102D900006060000000080404020201010080804B3
:102DA0000402020000000018244242424242424211
:102DB00024180000000000080E0808080808080889
:102DC000083E00000000003C42424220201008045F
:102DD000427E00000000003C424220182040404259
:102DE000221C0000000000203028242422227E2003
:102DF000207800000000007E0202021A26404042B5
:102E0000221C0000000000382402021A264242421E
:102E1000241800000000007E222210100808080874
:102E2000080800000000003C4242422418244242AC
:102E3000423C0000000000182442424264584040D6
:102E4000241C000000000000000018180000000012
:102E5000181800000000000000000008000000003A
:102E600000080804000000402010080402040810B4
:102E7000204000000000000000007F0000007F00F4
:102E8000000000000000000204081020402010088C
:102E9000040200000000003C4242464020101000A6
:102EA000181800000000001C225A555555552D4297
:102EB000221C00000000000808181414243C2242C0
:102EC00042E700000000001F2222221E224242424E
:102ED000221F00000000007C42420101010101426A
:102EE000221C00000000001F224242424242424295
:102EF000221F00000000003F4212121E1212024266
:102F0000423F00000000003F4212121E1212020255
:102F1000020700000000003C222201010171212271
:102F2000221C0000000000E7424242427E42424230
:102F300042E700000000003E0808080808080808EA
:102F4000083E00000000007C10101010101010103F
:102F50001010110F0000007722120A0E0A1212221E
:102F600022770000000000070202020202020202B1
:102F7000427F000000000077363636362A2A2A2A99
:102F80002A6B0000000000E346464A4A5252526251
:102F9000624700000000001C224141414141414183
:102FA000221C00000000003F424242423E02020258
:102FB000020700000000001C2241414141414D53E5
:102FC000321C60000000003F4242423E12122222A8
:102FD00042C700000000007C424202041820404228
:102FE000423E00000000007F490808080808080861
:102FF000081C0000000000E74242424242424242B6
:10300000423C0000000000E742422224241414182D
:10301000080800000000006B49494949555536220F
:1030200022220000000000E742242418181824245B
:1030300042E7000000000077222214140808080864
:10304000081C00000000007E21201010080404422B
:10305000423F000000780808080808080808080827
:103060000808780000000202040408080810102074
:1030700020204040001E10101010101010101010D2
:1030800010101E0000384400000000000000000086
:103090000000000000000000000000000000000030
:1030A000000000FF00060800000000000000000013
:1030B00000000000000000000000003C4278444294
:1030C00042FC0000000000030202021A26424242B3
:1030D000261A00000000000000000038440202022E
:1030E00044380000000000604040407844424242C2
:1030F00064D80000000000000000003C427E020294
:10310000423C0000000000F08808087E080808081B
:10311000083E0000000000000000007C22221C028B
:103120003C42423C000000030202023A4642424254
:1031300042E700000000000C0C00000E0808080820
:10314000083E000000000030300000382020202021
:103150002020221E0000000302020272120A161230
:10316000227700000000000E080808080808080878
:10317000083E0000000000000000007F9292929242
:1031800092B70000000000000000003B46424242AF
:1031900042E70000000000000000003C42424242C2
:1031A000423C0000000000000000001B264242429A
:1031B000221E020700000000000000784442424244
:1031C000447840E000000000000000774C04040454
:1031D000041F0000000000000000007C42023C4090
:1031E000423E0000000000000008083E08080808F1
:1031F000083000000000000000000063424242422C
:1032000062DC000000000000000000E742242414FB
:103210000808000000000000000000EB4949555577
:103220002222000000000000000000762418181878
:10323000246E000000000000000000E74224241477
:1032400018080807000000000000007E221008088F
:10325000447E000000C020202020201020202020BC
:103260002020C0001010101010101010101010109E
:1032700010101010000608080808081008080808B0
:10328000080806000C32C200000000000000000028
:103290000000000000093D000000FFFF0000FFFFEC
:0832A000000000000000000026
:04000005000000CD2A
:00000001FF
